:100000000C9434000C9497000C9497000C94970077
:100010000C9497000C9497000C9497000C94970004
:100020000C9497000C9497000C9497000C949700F4
:100030000C9497000C9497000C9497000C949700E4
:100040000C9497000C9497000C9497000C949700D4
:100050000C9497000C9497000C9497000C949700C4
:100060000C9497000C94970011241FBECFEFD8E09A
:10007000DEBFCDBFE8E6F0E040E017C0B591A59146
:1000800035912591059107FD0CC095918591EF0162
:10009000F92FE82F05900D92A217B307D9F7FE01AB
:1000A00004C01D92A217B307E1F7E836F40731F751
:0C00B0000E945E000C945C00F894FFCFEE
:1000BC0084B1826084B984B1877F84B987B18F7B26
:1000CC0087B985B1846085B90E948D0085B18B7F1D
:1000DC0085B923E02A95F1F7000085B1846085B9D4
:1000EC001999FECF1092850010928400199BFECFB7
:1000FC00809184009091850081329E4424F088B1D7
:0E010C008F7B88B9E3CF88B1806488B9DFCFDC
:10011A00E1E8F0E08081826080831092850010928D
:04012A0084000895B0
:04012E000C9400002D
:00000001FF
